:100000000C9454000C9473000C9473000C947300C3
:100010000C9473000C9473000C9473000C94730094
:100020000C9473000C9473000C9473000C94730084
:100030000C9473000C94E7010C9473000C947300FF
:100040000C9473000C9473000C9473000C94730064
:100050000C9473000C9473000C9473000C94730054
:100060000C9473000C9473000C9473000C94730044
:100070000C9473000C9473000C9473000C94730034
:100080000C9473000C9473000C9473009F02AD02E7
:10009000D00201032503500348039A0388038E030B
:1000A00094039A039A039A0311241FBECFEFD0E45E
:1000B000DEBFCDBF11E0A0E0B1E0E2EEF7E000E08E
:1000C0000BBF02C007900D92AA31B107D9F721E00A
:1000D000AAE1B1E001C01D92A232B207E1F70E948D
:1000E000A0030C94EF030C940000CF93DF93CDB7E3
:1000F000DEB781E00E949C000000DF91CF9108955F
:10010000CF93DF93CDB7DEB784E690E00E94400145
:1001100088E30E949C0086E00E949C008FE00E9481
:100120009C0081E00E949C008AE090E00E944001D7
:100130000000DF91CF910895CF93DF931F92CDB749
:10014000DEB789838BE290E02BE230E0F901208179
:100150002F7BFC01208388E290E02981FC01208331
:100160008BE290E02BE230E0F90120812068FC0175
:10017000208300008BE290E02BE230E0F901208147
:100180002F77FC01208382E090E00E944001000074
:100190000F90DF91CF910895CF93DF931F92CDB74A
:1001A000DEB789838BE290E02BE230E0F901208119
:1001B0002064FC01208388E290E02981FC012083F7
:1001C0008BE290E02BE230E0F90120812068FC0115
:1001D000208300008BE290E02BE230E0F9012081E7
:1001E0002F77FC01208381E090E00E944001000015
:1001F0000F90DF91CF910895CF93DF9300D000D07F
:10020000CDB7DEB78A837C836B830E9475008A81B9
:10021000898311C0898191E0980F99830E942901F7
:100220008B819C819C012F5F3F4F3C832B83FC0182
:1002300080810E94CC008B819C81FC01808188237D
:1002400049F700000F900F900F900F90DF91CF9122
:100250000895CF93DF931F92CDB7DEB7898389814D
:10026000813128F4898181580E949C0004C08981D1
:1002700081550E949C0000000F90DF91CF9108955E
:10028000CF93DF9300D000D000D0CDB7DEB79E83F0
:100290008D831A82198213C01C821B8206C0000043
:1002A0008B819C8101969C838B838B819C81873081
:1002B0009340ACF389819A8101969A83898329813D
:1002C0003A818D819E812817390734F300002696E4
:1002D0000FB6F894DEBF0FBECDBFDF91CF9108956A
:1002E000CF93DF9300D01F92CDB7DEB789837B8396
:1002F0006A8389818A3031F48A819B81BC018DE0D7
:100300000E94700180EC90E0FC018081882F90E0D9
:1003100080729927892BB1F386EC90E02981FC014A
:10032000208380E090E00F900F900F90DF91CF91AD
:100330000895CF93DF93CDB7DEB781E890E02BE04F
:10034000FC01208388E890E02DE730E0FC01318358
:1003500020838FE690E022E0FC01208384E890E097
:10036000FC011182108280910E0190910F01A091E9
:100370001001B091110180931B0190931C01A09377
:100380001D01B0931E018FE590E02FE530E0F901EB
:1003900020812068FC0120830000DF91CF91089527
:1003A000CF93DF93CDB7DEB781E890E0FC011082F8
:1003B0000000DF91CF910895CF93DF93CDB7DEB7E3
:1003C00081E080931A010000DF91CF9108951F9280
:1003D0000F9200905F000F92112400905B000F922B
:1003E0002F933F934F935F936F937F938F939F933D
:1003F000AF93BF93EF93FF93CF93DF93CDB7DEB768
:1004000080911B0190911C01A0911D01B0911E01D2
:100410000197A109B10980931B0190931C01A0933E
:100420001D01B0931E0180911B0190911C01A091B0
:100430001D01B0911E01892B8A2B8B2B91F40E94F8
:10044000DC0180910E0190910F01A0911001B091FB
:10045000110180931B0190931C01A0931D01B09387
:100460001E010000DF91CF91FF91EF91BF91AF91FD
:100470009F918F917F916F915F914F913F912F91BC
:100480000F9000925B000F9000925F000F901F9002
:100490001895CF93DF9300D000D0CDB7DEB7698336
:1004A0007A838B839C8389819A81AB81BC81809381
:1004B0000E0190930F01A0931001B0931101809150
:1004C0000E0190910F01A0911001B0911101809344
:1004D0001B0190931C01A0931D01B0931E0100000D
:1004E0000F900F900F900F90DF91CF910895CF93C1
:1004F000DF931F92CDB7DEB780E290E0FC018081F0
:10050000882F90E08170992721E0892B09F020E065
:1005100029838091200190912101CC01A0E0B0E0DD
:1005200040E050E026E030E0841B950B28173907A7
:1005300008F4D1C08A5B9F4FFC010C94E6030E9433
:10054000750080911201805D0E94CC0081E090E0F6
:100550009093210180932001C6C010921F018981D0
:100560008823B9F080911201882361F080911201F3
:100570008150809312010E94750080911201805D6C
:100580000E94CC0084E090E09093210180932001B0
:10059000AAC082E090E09093210180932001A3C043
:1005A00089818823B9F080911201893060F48091AB
:1005B00012018F5F809312010E94750080911201D9
:1005C000805D0E94CC0084E090E0909321018093B4
:1005D000200186C080911F01882339F483E090E0D8
:1005E00090932101809320017BC080911F01813075
:1005F00009F076C081E090E0909321018093200182
:100600006FC081E080931F0189818823B9F08091B8
:100610001201882361F080911201815080931201B0
:100620000E94750080911201805D0E94CC0084E0E0
:1006300090E0909321018093200155C082E090E0EA
:1006400090932101809320014EC08981882339F045
:1006500084E090E0909321018093200144C0809138
:100660001201893071F40E94750063E171E081E04C
:100670000E94FC0085E090E090932101809320018E
:1006800032C086E090E090932101809320012BC03E
:100690008981882339F1109221011092200122C012
:1006A0008981882389F085E0809312010E9475007A
:1006B00080911201805D0E94CC0086E090E09093D2
:1006C0002101809320010FC085E090E090932101EB
:1006D0008093200108C0109221011092200103C0D4
:1006E000000001C000008091200190912101CC0107
:1006F000A0E0B0E040E050E026E030E0841B950B45
:1007000028173907C0F0835B9F4FFC010C94E60368
:1007100085E290E021E0FC0120830DC085E290E0BD
:1007200022E0FC01208307C085E290E024E0FC0188
:10073000208301C0000000000F90DF91CF91089549
:10074000CF93DF93CDB7DEB781E290E0FC0110825A
:1007500082E290E02FEFFC01208384E290E02FEF13
:10076000FC01208385E290E0FC01108287E290E0AA
:100770002FEFFC01208388E290E0FC0110828AE2E6
:1007800090E02FEFFC0120838BE290E0FC011082CF
:100790006CE271E080E090E00E9449020E949901C1
:1007A0000E94800081E00E94290110922101109294
:1007B000200185E0809312010E9477020000809161
:1007C0001A018823E1F310921A01F6CFEE0FFF1FF2
:1007D0000024001C0BBE0790F691E02D0994F894BC
:0207E000FFCF49
:1007E2000000000200000000700100000000010093
:0A07F20000000557696E6E65720085
:00000001FF
