:100000000C9456000C9475000C9475000C947500BB
:100010000C9475000C9475000C9475000C9475008C
:100020000C9475000C9475000C9475000C9475007C
:100030000C9475000C94E9010C9475000C947500F7
:100040000C9475000C9475000C9475000C9475005C
:100050000C9475000C9475000C9475000C9475004C
:100060000C9475000C9475000C9475000C9475003C
:100070000C9475000C9475000C9475000C9475002C
:100080000C9475000C9475000C9475009B02A402EE
:100090006E03C3020C034D03010342038D03CA0325
:1000A000C403CA03CA03B8039303A40311241FBEE5
:1000B000CFEFD0E4DEBFCDBF11E0A0E0B1E0EEE4D1
:1000C000F8E000E00BBF02C007900D92A431B10729
:1000D000D9F721E0A4E1B1E001C01D92AD31B20732
:1000E000E1F70E94D4030C9425040C940000CF93F4
:1000F000DF93CDB7DEB781E00E949E000000DF9164
:10010000CF910895CF93DF93CDB7DEB784E690E02B
:100110000E94420188E30E949E0086E00E949E00A9
:100120008FE00E949E0081E00E949E008AE090E0A5
:100130000E9442010000DF91CF910895CF93DF9399
:100140001F92CDB7DEB789838BE290E02BE230E0DF
:10015000F90120812F7BFC01208388E290E0298136
:10016000FC0120838BE290E02BE230E0F90120815A
:100170002068FC01208300008BE290E02BE230E05D
:10018000F90120812F77FC01208382E090E00E941A
:10019000420100000F90DF91CF910895CF93DF933C
:1001A0001F92CDB7DEB789838BE290E02BE230E07F
:1001B000F90120812064FC01208388E290E02981FC
:1001C000FC0120838BE290E02BE230E0F9012081FA
:1001D0002068FC01208300008BE290E02BE230E0FD
:1001E000F90120812F77FC01208381E090E00E94BB
:1001F000420100000F90DF91CF910895CF93DF93DC
:1002000000D000D0CDB7DEB78A837C836B830E9499
:1002100077008A81898311C0898191E0980F998341
:100220000E942B018B819C819C012F5F3F4F3C835F
:100230002B83FC0180810E94CE008B819C81FC017C
:100240008081882349F700000F900F900F900F9046
:10025000DF91CF910895CF93DF931F92CDB7DEB793
:1002600089838981813128F4898181580E949E0087
:1002700004C0898181550E949E0000000F90DF918B
:10028000CF910895CF93DF9300D000D000D0CDB7A9
:10029000DEB79E838D831A82198213C01C821B8253
:1002A00006C000008B819C8101969C838B838B818F
:1002B0009C8187309340ACF389819A8101969A831F
:1002C000898329813A818D819E812817390734F3EA
:1002D000000026960FB6F894DEBF0FBECDBFDF91AB
:1002E000CF910895CF93DF9300D01F92CDB7DEB7A3
:1002F00089837B836A8389818A3031F48A819B81F7
:10030000BC018DE00E94720180EC90E0FC018081D4
:10031000882F90E080729927892BB1F386EC90E0CA
:100320002981FC01208380E090E00F900F900F90D6
:10033000DF91CF910895CF93DF93CDB7DEB781E8FA
:1003400090E02BE0FC01208388E890E02DE730E08E
:10035000FC01318320838FE690E022E0FC012083C2
:1003600084E890E0FC011182108280910F0190914D
:100370001001A0911101B091120180931701909387
:100380001801A0931901B0931A018FE590E02FE5B1
:1003900030E0F90120812068FC0120830000DF911A
:1003A000CF910895CF93DF93CDB7DEB781E890E08A
:1003B000FC0110820000DF91CF910895CF93DF936D
:1003C000CDB7DEB781E0809314010000DF91CF91BB
:1003D00008951F920F9200905F000F9211240090D9
:1003E0005B000F922F933F934F935F936F937F9395
:1003F0008F939F93AF93BF93EF93FF93CF93DF932D
:10040000CDB7DEB78091170190911801A091190125
:10041000B0911A010197A109B10980931701909336
:100420001801A0931901B0931A01809117019091BE
:100430001801A0911901B0911A01892B8A2B8B2BDD
:1004400091F40E94DE0180910F0190911001A09122
:100450001101B09112018093170190931801A0939C
:100460001901B0931A010000DF91CF91FF91EF9134
:10047000BF91AF919F918F917F916F915F914F91BC
:100480003F912F910F9000925B000F9000925F00C0
:100490000F901F901895CF93DF9300D000D0CDB769
:1004A000DEB769837A838B839C8389819A81AB8150
:1004B000BC8180930F0190931001A0931101B09320
:1004C000120180910F0190911001A0911101B09142
:1004D00012018093170190931801A0931901B09312
:1004E0001A0100000F900F900F900F90DF91CF91A5
:1004F0000895CF93DF931F92CDB7DEB780E290E0EF
:10050000FC01808180958370898380911B0190918B
:100510001C01CC01A0E0B0E040E050E027E030E07A
:10052000841B950B2817390708F4D8C08A5B9F4FA6
:10053000FC010C941C0481E090E090931C018093DA
:100540001B0110920E01D4C08981833039F485E0FB
:1005500090E090931C0180931B01C5C0898181307C
:1005600039F486E090E090931C0180931B01BBC09E
:100570008981823009F0B7C087E090E090931C0138
:1005800080931B01B0C089818130A9F481E0809300
:100590001601809115018A3039F486E090E090933D
:1005A0001C0180931B01A1C083E090E090931C018B
:1005B00080931B019AC08981882339F481E090E0FF
:1005C00090931C0180931B0190C080E290E0FC019D
:1005D0008081823039F487E090E090931C01809311
:1005E0001B0183C08981833009F07FC088E290E0DD
:1005F000FC01108285E090E090931C0180931B0128
:1006000074C083E090E090931C0180931B011092D2
:100610001501109216016CC089818230A9F481E025
:1006200080931601809115018A3039F487E090E0BB
:1006300090931C0180931B015AC084E090E090933A
:100640001C0180931B0153C08981882339F481E008
:1006500090E090931C0180931B0149C089818130F7
:1006600039F486E090E090931C0180931B013FC019
:1006700089818330E1F585E090E090931C018093BF
:100680001B0135C084E090E090931C0180931B0116
:1006900010921501109216012BC080E290E0FC012F
:1006A0008081833039F485E090E090931C01809341
:1006B0001B011EC080E290E0FC018081882339F498
:1006C00081E090E090931C0180931B0111C081E0B8
:1006D00090E090931C0180931B010AC010921C01B2
:1006E00010921B0105C0000003C0000001C0000003
:1006F00080911B0190911C01CC01A0E0B0E040E092
:1007000050E027E030E0841B950B28173907E0F113
:10071000825B9F4FFC010C941C0485E290E027E073
:10072000FC0120833CC080910E018930A8F58091A6
:100730000E018F5F80930E010E94770080910E0161
:10074000805D0E94CE0028C080910E01882331F187
:1007500080910E01815080930E010E94770081E00C
:100760000E942B0180910E01805D0E94CE0016C078
:100770000E94770080E30E94CE0085E290E0FC01B9
:10078000108210920E010BC085E290E027E0FC0180
:10079000208305C0000003C0000001C0000000006D
:1007A0000F90DF91CF910895CF93DF93CDB7DEB750
:1007B00081E290E0FC01108282E290E02FEFFC01E8
:1007C000208387E290E02FEFFC01208388E290E015
:1007D000FC0110828AE290E02FEFFC0120838BE283
:1007E00090E0FC01108264E670E080E090E00E94FE
:1007F0004B020E949B010E94820081E00E942B011B
:1008000080E30E94CE000E947902000080911401D2
:100810008823E1F31092140180911601813029F4AC
:10082000809115018F5F8093150185E290E0209102
:100830000E01FC012083E7CFEE0FFF1F0024001CF8
:0E0840000BBE0790F691E02D0994F894FFCFBF
:10084E00000000020000000072010000000007011D
:04085E000000000096
:00000001FF
